{
  "address": "0xCf7Ed3AccA5a467e9e704C703E8D87F634fB0Fc9",
  "abi": [
    {
      "inputs": [
        {
          "internalType": "address",
          "name": "priceFeedAddress",
          "type": "address"
        }
      ],
      "stateMutability": "nonpayable",
      "type": "constructor"
    },
    {
      "inputs": [
        {
          "internalType": "bytes",
          "name": "message",
          "type": "bytes"
        }
      ],
      "name": "FailRevert",
      "type": "error"
    },
    {
      "inputs": [
        {
          "internalType": "bytes",
          "name": "message",
          "type": "bytes"
        }
      ],
      "name": "NotEnoughMoney",
      "type": "error"
    },
    {
      "inputs": [
        {
          "internalType": "bytes",
          "name": "message",
          "type": "bytes"
        }
      ],
      "name": "NotOwner",
      "type": "error"
    },
    {
      "stateMutability": "payable",
      "type": "fallback"
    },
    {
      "inputs": [],
      "name": "MINIUM_USD",
      "outputs": [
        {
          "internalType": "uint256",
          "name": "",
          "type": "uint256"
        }
      ],
      "stateMutability": "view",
      "type": "function"
    },
    {
      "inputs": [
        {
          "internalType": "address",
          "name": "",
          "type": "address"
        }
      ],
      "name": "addressToAmountFunded",
      "outputs": [
        {
          "internalType": "uint256",
          "name": "",
          "type": "uint256"
        }
      ],
      "stateMutability": "view",
      "type": "function"
    },
    {
      "inputs": [],
      "name": "fund",
      "outputs": [],
      "stateMutability": "payable",
      "type": "function"
    },
    {
      "inputs": [
        {
          "internalType": "uint256",
          "name": "",
          "type": "uint256"
        }
      ],
      "name": "funders",
      "outputs": [
        {
          "internalType": "address",
          "name": "",
          "type": "address"
        }
      ],
      "stateMutability": "view",
      "type": "function"
    },
    {
      "inputs": [],
      "name": "i_owner",
      "outputs": [
        {
          "internalType": "address",
          "name": "",
          "type": "address"
        }
      ],
      "stateMutability": "view",
      "type": "function"
    },
    {
      "inputs": [],
      "name": "priceFeed",
      "outputs": [
        {
          "internalType": "contract AggregatorV3Interface",
          "name": "",
          "type": "address"
        }
      ],
      "stateMutability": "view",
      "type": "function"
    },
    {
      "inputs": [],
      "name": "withdow",
      "outputs": [],
      "stateMutability": "nonpayable",
      "type": "function"
    },
    {
      "stateMutability": "payable",
      "type": "receive"
    }
  ],
  "transactionHash": "0x9ef666c334845155c76d5eae18e14b11fc891104fbd53ee349ee5d51e387781f",
  "args": [
    "0x5FbDB2315678afecb367f032d93F642f64180aa3"
  ],
  "numDeployments": 1,
  "solcInputHash": "04b1a610371ec696c67f5ad4f1f85c41",
  "bytecode": "0x60a060405234801561001057600080fd5b50604051610e28380380610e2883398181016040528101906100329190610110565b3373ffffffffffffffffffffffffffffffffffffffff1660808173ffffffffffffffffffffffffffffffffffffffff168152505080600260006101000a81548173ffffffffffffffffffffffffffffffffffffffff021916908373ffffffffffffffffffffffffffffffffffffffff1602179055505061013d565b600080fd5b600073ffffffffffffffffffffffffffffffffffffffff82169050919050565b60006100dd826100b2565b9050919050565b6100ed816100d2565b81146100f857600080fd5b50565b60008151905061010a816100e4565b92915050565b600060208284031215610126576101256100ad565b5b6000610134848285016100fb565b91505092915050565b608051610cc961015f6000396000818161032901526104bc0152610cc96000f3fe6080604052600436106100745760003560e01c80639b366b761161004e5780639b366b761461010c578063b60d428814610137578063dba6335f14610141578063dc0d3dff1461016c57610083565b80633e47d6f31461008d578063741bef1a146100ca57806375b377d0146100f557610083565b36610083576100816101a9565b005b61008b6101a9565b005b34801561009957600080fd5b506100b460048036038101906100af91906106f4565b6102d2565b6040516100c1919061073a565b60405180910390f35b3480156100d657600080fd5b506100df6102ea565b6040516100ec91906107b4565b60405180910390f35b34801561010157600080fd5b5061010a610310565b005b34801561011857600080fd5b506101216104ad565b60405161012e919061073a565b60405180910390f35b61013f6101a9565b005b34801561014d57600080fd5b506101566104ba565b60405161016391906107de565b60405180910390f35b34801561017857600080fd5b50610193600480360381019061018e9190610825565b6104de565b6040516101a091906107de565b60405180910390f35b6802b5e3af16b18800006101e8600260009054906101000a900473ffffffffffffffffffffffffffffffffffffffff163461051d90919063ffffffff16565b1015610229576040517f908e338a000000000000000000000000000000000000000000000000000000008152600401610220906108d5565b60405180910390fd5b6000339080600181540180825580915050600190039060005260206000200160009091909190916101000a81548173ffffffffffffffffffffffffffffffffffffffff021916908373ffffffffffffffffffffffffffffffffffffffff16021790555034600160003373ffffffffffffffffffffffffffffffffffffffff1673ffffffffffffffffffffffffffffffffffffffff16815260200190815260200160002081905550565b60016020528060005260406000206000915090505481565b600260009054906101000a900473ffffffffffffffffffffffffffffffffffffffff1681565b3373ffffffffffffffffffffffffffffffffffffffff167f000000000000000000000000000000000000000000000000000000000000000073ffffffffffffffffffffffffffffffffffffffff161461039e576040517f3fe1473b00000000000000000000000000000000000000000000000000000000815260040161039590610941565b60405180910390fd5b600067ffffffffffffffff8111156103b9576103b8610961565b5b6040519080825280602002602001820160405280156103e75781602001602082028036833780820191505090505b50600090805190602001906103fd9291906105ea565b5060003373ffffffffffffffffffffffffffffffffffffffff1647604051610424906109c1565b60006040518083038185875af1925050503d8060008114610461576040519150601f19603f3d011682016040523d82523d6000602084013e610466565b606091505b50509050806104aa576040517f804e9c0f0000000000000000000000000000000000000000000000000000000081526004016104a190610a22565b60405180910390fd5b50565b6802b5e3af16b188000081565b7f000000000000000000000000000000000000000000000000000000000000000081565b600081815481106104ee57600080fd5b906000526020600020016000915054906101000a900473ffffffffffffffffffffffffffffffffffffffff1681565b60008061052983610559565b90506000670de0b6b3a764000085836105429190610a71565b61054c9190610ae2565b9050809250505092915050565b6000808273ffffffffffffffffffffffffffffffffffffffff1663feaf968c6040518163ffffffff1660e01b815260040160a060405180830381865afa1580156105a7573d6000803e3d6000fd5b505050506040513d601f19601f820116820180604052508101906105cb9190610ba0565b5050509150506402540be400816105e29190610c1b565b915050919050565b828054828255906000526020600020908101928215610663579160200282015b828111156106625782518260006101000a81548173ffffffffffffffffffffffffffffffffffffffff021916908373ffffffffffffffffffffffffffffffffffffffff1602179055509160200191906001019061060a565b5b5090506106709190610674565b5090565b5b8082111561068d576000816000905550600101610675565b5090565b600080fd5b600073ffffffffffffffffffffffffffffffffffffffff82169050919050565b60006106c182610696565b9050919050565b6106d1816106b6565b81146106dc57600080fd5b50565b6000813590506106ee816106c8565b92915050565b60006020828403121561070a57610709610691565b5b6000610718848285016106df565b91505092915050565b6000819050919050565b61073481610721565b82525050565b600060208201905061074f600083018461072b565b92915050565b6000819050919050565b600061077a61077561077084610696565b610755565b610696565b9050919050565b600061078c8261075f565b9050919050565b600061079e82610781565b9050919050565b6107ae81610793565b82525050565b60006020820190506107c960008301846107a5565b92915050565b6107d8816106b6565b82525050565b60006020820190506107f360008301846107cf565b92915050565b61080281610721565b811461080d57600080fd5b50565b60008135905061081f816107f9565b92915050565b60006020828403121561083b5761083a610691565b5b600061084984828501610810565b91505092915050565b600082825260208201905092915050565b7fe8bf99e782b9e992b1e4b99fe5a5bde6848fe6809de68bbfe587bae69da5efbc60008201527f8100000000000000000000000000000000000000000000000000000000000000602082015250565b60006108bf602183610852565b91506108ca82610863565b604082019050919050565b600060208201905081810360008301526108ee816108b2565b9050919050565b7fe4bda0e6a0b9e69cace4b88de698afe887aae5b7b1e4babaefbc810000000000600082015250565b600061092b601b83610852565b9150610936826108f5565b602082019050919050565b6000602082019050818103600083015261095a8161091e565b9050919050565b7f4e487b7100000000000000000000000000000000000000000000000000000000600052604160045260246000fd5b600081905092915050565b50565b60006109ab600083610990565b91506109b68261099b565b600082019050919050565b60006109cc8261099e565b9150819050919050565b7fe58db7e992b1e5a4b1e8b4a5efbc81efbc810000000000000000000000000000600082015250565b6000610a0c601283610852565b9150610a17826109d6565b602082019050919050565b60006020820190508181036000830152610a3b816109ff565b9050919050565b7f4e487b7100000000000000000000000000000000000000000000000000000000600052601160045260246000fd5b6000610a7c82610721565b9150610a8783610721565b9250828202610a9581610721565b91508282048414831517610aac57610aab610a42565b5b5092915050565b7f4e487b7100000000000000000000000000000000000000000000000000000000600052601260045260246000fd5b6000610aed82610721565b9150610af883610721565b925082610b0857610b07610ab3565b5b828204905092915050565b600069ffffffffffffffffffff82169050919050565b610b3281610b13565b8114610b3d57600080fd5b50565b600081519050610b4f81610b29565b92915050565b6000819050919050565b610b6881610b55565b8114610b7357600080fd5b50565b600081519050610b8581610b5f565b92915050565b600081519050610b9a816107f9565b92915050565b600080600080600060a08688031215610bbc57610bbb610691565b5b6000610bca88828901610b40565b9550506020610bdb88828901610b76565b9450506040610bec88828901610b8b565b9350506060610bfd88828901610b8b565b9250506080610c0e88828901610b40565b9150509295509295909350565b6000610c2682610b55565b9150610c3183610b55565b9250828202610c3f81610b55565b91507f80000000000000000000000000000000000000000000000000000000000000008414600084121615610c7757610c76610a42565b5b8282058414831517610c8c57610c8b610a42565b5b509291505056fea2646970667358221220ea69f9f3f3d3d4b02342797f83bc66098f12f9c493c949c55efcd90acfb3b17b64736f6c634300081c0033",
  "devdoc": {
    "details": "一个简单的众筹合约，允许用户捐款并让所有者提取资金",
    "kind": "dev",
    "methods": {
      "constructor": {
        "details": "构造函数",
        "params": {
          "priceFeedAddress": "汇率合约地址"
        }
      },
      "fund()": {
        "details": "众筹函数"
      },
      "withdow()": {
        "details": "提现函数"
      }
    },
    "stateVariables": {
      "MINIUM_USD": {
        "details": "最小众筹金额"
      },
      "addressToAmountFunded": {
        "details": "众筹者金额映射"
      },
      "funders": {
        "details": "众筹者列表"
      },
      "i_owner": {
        "details": "合约拥有者"
      },
      "priceFeed": {
        "details": "汇率合约"
      }
    },
    "title": "FundMe",
    "version": 1
  },
  "userdoc": {
    "kind": "user",
    "methods": {},
    "version": 1
  },
  "storageLayout": {
    "storage": [
      {
        "astId": 340,
        "contract": "contracts/FundMe.sol:FundMe",
        "label": "funders",
        "offset": 0,
        "slot": "0",
        "type": "t_array(t_address)dyn_storage"
      },
      {
        "astId": 345,
        "contract": "contracts/FundMe.sol:FundMe",
        "label": "addressToAmountFunded",
        "offset": 0,
        "slot": "1",
        "type": "t_mapping(t_address,t_uint256)"
      },
      {
        "astId": 352,
        "contract": "contracts/FundMe.sol:FundMe",
        "label": "priceFeed",
        "offset": 0,
        "slot": "2",
        "type": "t_contract(AggregatorV3Interface)104"
      }
    ],
    "types": {
      "t_address": {
        "encoding": "inplace",
        "label": "address",
        "numberOfBytes": "20"
      },
      "t_array(t_address)dyn_storage": {
        "base": "t_address",
        "encoding": "dynamic_array",
        "label": "address[]",
        "numberOfBytes": "32"
      },
      "t_contract(AggregatorV3Interface)104": {
        "encoding": "inplace",
        "label": "contract AggregatorV3Interface",
        "numberOfBytes": "20"
      },
      "t_mapping(t_address,t_uint256)": {
        "encoding": "mapping",
        "key": "t_address",
        "label": "mapping(address => uint256)",
        "numberOfBytes": "32",
        "value": "t_uint256"
      },
      "t_uint256": {
        "encoding": "inplace",
        "label": "uint256",
        "numberOfBytes": "32"
      }
    }
  }
}